{
  "_format": "hh-sol-artifact-1",
  "contractName": "Raffle",
  "sourceName": "contracts/Raffle.sol",
  "abi": [
    {
      "inputs": [
        {
          "internalType": "address",
          "name": "vrfCoordinatorV2",
          "type": "address"
        },
        {
          "internalType": "uint256",
          "name": "entranceFee",
          "type": "uint256"
        },
        {
          "internalType": "bytes32",
          "name": "gasLane",
          "type": "bytes32"
        },
        {
          "internalType": "uint64",
          "name": "subscriptionId",
          "type": "uint64"
        },
        {
          "internalType": "uint32",
          "name": "callbackGasLimit",
          "type": "uint32"
        }
      ],
      "stateMutability": "nonpayable",
      "type": "constructor"
    },
    {
      "inputs": [
        {
          "internalType": "address",
          "name": "have",
          "type": "address"
        },
        {
          "internalType": "address",
          "name": "want",
          "type": "address"
        }
      ],
      "name": "OnlyCoordinatorCanFulfill",
      "type": "error"
    },
    {
      "inputs": [],
      "name": "Raffle__TransferFailed",
      "type": "error"
    },
    {
      "anonymous": false,
      "inputs": [
        {
          "indexed": true,
          "internalType": "address",
          "name": "player",
          "type": "address"
        }
      ],
      "name": "RaffleEnter",
      "type": "event"
    },
    {
      "anonymous": false,
      "inputs": [
        {
          "indexed": true,
          "internalType": "uint256",
          "name": "requestId",
          "type": "uint256"
        }
      ],
      "name": "RequestedRaffleWinner",
      "type": "event"
    },
    {
      "anonymous": false,
      "inputs": [
        {
          "indexed": true,
          "internalType": "address",
          "name": "winner",
          "type": "address"
        }
      ],
      "name": "WinnerPicked",
      "type": "event"
    },
    {
      "inputs": [],
      "name": "enterRaffle",
      "outputs": [],
      "stateMutability": "payable",
      "type": "function"
    },
    {
      "inputs": [],
      "name": "getEntranceFee",
      "outputs": [
        {
          "internalType": "uint256",
          "name": "",
          "type": "uint256"
        }
      ],
      "stateMutability": "view",
      "type": "function"
    },
    {
      "inputs": [
        {
          "internalType": "uint256",
          "name": "index",
          "type": "uint256"
        }
      ],
      "name": "getPlayer",
      "outputs": [
        {
          "internalType": "address",
          "name": "",
          "type": "address"
        }
      ],
      "stateMutability": "view",
      "type": "function"
    },
    {
      "inputs": [],
      "name": "getRecentWinner",
      "outputs": [
        {
          "internalType": "address",
          "name": "",
          "type": "address"
        }
      ],
      "stateMutability": "view",
      "type": "function"
    },
    {
      "inputs": [
        {
          "internalType": "uint256",
          "name": "requestId",
          "type": "uint256"
        },
        {
          "internalType": "uint256[]",
          "name": "randomWords",
          "type": "uint256[]"
        }
      ],
      "name": "rawFulfillRandomWords",
      "outputs": [],
      "stateMutability": "nonpayable",
      "type": "function"
    },
    {
      "inputs": [],
      "name": "requestRandomWinner",
      "outputs": [],
      "stateMutability": "nonpayable",
      "type": "function"
    }
  ],
  "bytecode": "0x6101406040523480156200001257600080fd5b5060405162000f2d38038062000f2d833981810160405281019062000038919062000255565b848073ffffffffffffffffffffffffffffffffffffffff1660808173ffffffffffffffffffffffffffffffffffffffff1681525050508360a081815250508473ffffffffffffffffffffffffffffffffffffffff1660c08173ffffffffffffffffffffffffffffffffffffffff16815250508260e081815250508167ffffffffffffffff166101008167ffffffffffffffff16815250508063ffffffff166101208163ffffffff16815250505050505050620002dd565b600080fd5b600073ffffffffffffffffffffffffffffffffffffffff82169050919050565b60006200012182620000f4565b9050919050565b620001338162000114565b81146200013f57600080fd5b50565b600081519050620001538162000128565b92915050565b6000819050919050565b6200016e8162000159565b81146200017a57600080fd5b50565b6000815190506200018e8162000163565b92915050565b6000819050919050565b620001a98162000194565b8114620001b557600080fd5b50565b600081519050620001c9816200019e565b92915050565b600067ffffffffffffffff82169050919050565b620001ee81620001cf565b8114620001fa57600080fd5b50565b6000815190506200020e81620001e3565b92915050565b600063ffffffff82169050919050565b6200022f8162000214565b81146200023b57600080fd5b50565b6000815190506200024f8162000224565b92915050565b600080600080600060a08688031215620002745762000273620000ef565b5b6000620002848882890162000142565b955050602062000297888289016200017d565b9450506040620002aa88828901620001b8565b9350506060620002bd88828901620001fd565b9250506080620002d0888289016200023e565b9150509295509295909350565b60805160a05160c05160e0516101005161012051610bf26200033b60003960006103d7015260006103b4015260006103930152600061035701526000818161013b015261022101526000818161016101526101b50152610bf26000f3fe6080604052600436106100555760003560e01c806309bc33a71461005a5780631fe543e3146100855780632cfcc539146100ae578063473f1ddc146100b8578063522a1f0b146100e3578063e55ae4e8146100fa575b600080fd5b34801561006657600080fd5b5061006f610137565b60405161007c919061069b565b60405180910390f35b34801561009157600080fd5b506100ac60048036038101906100a7919061084f565b61015f565b005b6100b661021f565b005b3480156100c457600080fd5b506100cd610329565b6040516100da91906108ec565b60405180910390f35b3480156100ef57600080fd5b506100f8610353565b005b34801561010657600080fd5b50610121600480360381019061011c9190610907565b61049c565b60405161012e91906108ec565b60405180910390f35b60007f0000000000000000000000000000000000000000000000000000000000000000905090565b7f000000000000000000000000000000000000000000000000000000000000000073ffffffffffffffffffffffffffffffffffffffff163373ffffffffffffffffffffffffffffffffffffffff161461021157337f00000000000000000000000000000000000000000000000000000000000000006040517f1cf993f4000000000000000000000000000000000000000000000000000000008152600401610208929190610934565b60405180910390fd5b61021b82826104e3565b5050565b7f00000000000000000000000000000000000000000000000000000000000000003411610281576040517f08c379a0000000000000000000000000000000000000000000000000000000008152600401610278906109ba565b60405180910390fd5b6000339080600181540180825580915050600190039060005260206000200160009091909190916101000a81548173ffffffffffffffffffffffffffffffffffffffff021916908373ffffffffffffffffffffffffffffffffffffffff1602179055503373ffffffffffffffffffffffffffffffffffffffff167f0805e1d667bddb8a95f0f09880cf94f403fb596ce79928d9f29b74203ba284d460405160405180910390a2565b6000600160009054906101000a900473ffffffffffffffffffffffffffffffffffffffff16905090565b60007f000000000000000000000000000000000000000000000000000000000000000073ffffffffffffffffffffffffffffffffffffffff16635d3b1d307f00000000000000000000000000000000000000000000000000000000000000007f000000000000000000000000000000000000000000000000000000000000000060037f000000000000000000000000000000000000000000000000000000000000000060016040518663ffffffff1660e01b8152600401610418959493929190610a52565b602060405180830381600087803b15801561043257600080fd5b505af1158015610446573d6000803e3d6000fd5b505050506040513d601f19601f8201168201806040525081019061046a9190610aba565b9050807fcd6e45c8998311cab7e9d4385596cac867e20a0587194b954fa3a731c93ce78b60405160405180910390a250565b60008082815481106104b1576104b0610ae7565b5b9060005260206000200160009054906101000a900473ffffffffffffffffffffffffffffffffffffffff169050919050565b60008080549050826000815181106104fe576104fd610ae7565b5b60200260200101516105109190610b45565b9050600080828154811061052757610526610ae7565b5b9060005260206000200160009054906101000a900473ffffffffffffffffffffffffffffffffffffffff16905080600160006101000a81548173ffffffffffffffffffffffffffffffffffffffff021916908373ffffffffffffffffffffffffffffffffffffffff16021790555060008173ffffffffffffffffffffffffffffffffffffffff16476040516105bb90610ba7565b60006040518083038185875af1925050503d80600081146105f8576040519150601f19603f3d011682016040523d82523d6000602084013e6105fd565b606091505b5050905080610638576040517fa1d04b3900000000000000000000000000000000000000000000000000000000815260040160405180910390fd5b8173ffffffffffffffffffffffffffffffffffffffff167f5b690ec4a06fe979403046eaeea5b3ce38524683c3001f662c8b5a829632f7df60405160405180910390a25050505050565b6000819050919050565b61069581610682565b82525050565b60006020820190506106b0600083018461068c565b92915050565b6000604051905090565b600080fd5b600080fd5b6106d381610682565b81146106de57600080fd5b50565b6000813590506106f0816106ca565b92915050565b600080fd5b6000601f19601f8301169050919050565b7f4e487b7100000000000000000000000000000000000000000000000000000000600052604160045260246000fd5b610744826106fb565b810181811067ffffffffffffffff821117156107635761076261070c565b5b80604052505050565b60006107766106b6565b9050610782828261073b565b919050565b600067ffffffffffffffff8211156107a2576107a161070c565b5b602082029050602081019050919050565b600080fd5b60006107cb6107c684610787565b61076c565b905080838252602082019050602084028301858111156107ee576107ed6107b3565b5b835b81811015610817578061080388826106e1565b8452602084019350506020810190506107f0565b5050509392505050565b600082601f830112610836576108356106f6565b5b81356108468482602086016107b8565b91505092915050565b60008060408385031215610866576108656106c0565b5b6000610874858286016106e1565b925050602083013567ffffffffffffffff811115610895576108946106c5565b5b6108a185828601610821565b9150509250929050565b600073ffffffffffffffffffffffffffffffffffffffff82169050919050565b60006108d6826108ab565b9050919050565b6108e6816108cb565b82525050565b600060208201905061090160008301846108dd565b92915050565b60006020828403121561091d5761091c6106c0565b5b600061092b848285016106e1565b91505092915050565b600060408201905061094960008301856108dd565b61095660208301846108dd565b9392505050565b600082825260208201905092915050565b7f4e6f7420656e6f75676820455448210000000000000000000000000000000000600082015250565b60006109a4600f8361095d565b91506109af8261096e565b602082019050919050565b600060208201905081810360008301526109d381610997565b9050919050565b6000819050919050565b6109ed816109da565b82525050565b600067ffffffffffffffff82169050919050565b610a10816109f3565b82525050565b600061ffff82169050919050565b610a2d81610a16565b82525050565b600063ffffffff82169050919050565b610a4c81610a33565b82525050565b600060a082019050610a6760008301886109e4565b610a746020830187610a07565b610a816040830186610a24565b610a8e6060830185610a43565b610a9b6080830184610a43565b9695505050505050565b600081519050610ab4816106ca565b92915050565b600060208284031215610ad057610acf6106c0565b5b6000610ade84828501610aa5565b91505092915050565b7f4e487b7100000000000000000000000000000000000000000000000000000000600052603260045260246000fd5b7f4e487b7100000000000000000000000000000000000000000000000000000000600052601260045260246000fd5b6000610b5082610682565b9150610b5b83610682565b925082610b6b57610b6a610b16565b5b828206905092915050565b600081905092915050565b50565b6000610b91600083610b76565b9150610b9c82610b81565b600082019050919050565b6000610bb282610b84565b915081905091905056fea26469706673582212205c0028e88d1b53e4853d3756d254686a1bf6242c79b6ef76df492b840797f84f64736f6c63430008090033",
  "linkReferences": {},
  "deployedLinkReferences": {}
}